:020000040800F2
:100000000808002089010008B51D000855170008E0
:10001000251D0008910200082D24000800000000A2
:100020000000000000000000000000003D2000086B
:1000300095020008000000000D200008892000083B
:10004000A3010008A3010008A3010008A301000800
:10005000A3010008A3010008A3010008A3010008F0
:10006000A3010008A3010008A3010008A3010008E0
:10007000A3010008A3010008A3010008A3010008D0
:10008000A3010008A3010008A3010008A3010008C0
:10009000A3010008A3010008A3010008A3010008B0
:1000A000A3010008A3010008A3010008A3010008A0
:1000B000F5200008A3010008A3010008A30100081F
:1000C000A3010008A3010008A3010008A301000880
:1000D000A3010008A3010008A3010008A301000870
:1000E000A3010008A3010008A301000800F002F822
:1000F00000F03AF80AA090E8000C82448344AAF188
:100100000107DA4501D100F02FF8AFF2090EBAE885
:100110000F0013F0010F18BFFB1A43F0010318473B
:10012000CC2E0000EC2E0000103A24BF78C878C115
:10013000FAD8520724BF30C830C144BF04680C60ED
:10014000704700000023002400250026103A28BF35
:1001500078C1FBD8520728BF30C148BF0B60704739
:100160001FB51FBD10B510BD00F058F81146FFF7C0
:10017000F7FF02F0B9F900F076F803B4FFF7F2FFE9
:1001800003BC00F07DF8000009488047094800479B
:10019000FEE7FEE7FEE7FEE7FEE7FEE7FEE7FEE737
:1001A000FEE7FEE704480549054A064B7047000094
:1001B000F1200008ED0000080802002008080020D7
:1001C00008040020080400204FF0000200B5134688
:1001D00094469646203922BFA0E80C50A0E80C5067
:1001E000B1F12001BFF4F7AF090728BFA0E80C5018
:1001F00048BF0CC05DF804EB890028BF40F8042B11
:1002000008BF704748BF20F8022B11F0804F18BF7D
:1002100000F8012B7047704770477047754600F033
:100220002BF8AE4605006946534620F00700854688
:1002300018B020B5FFF7B6FFBDE820404FF000062C
:100240004FF000074FF000084FF0000BAC46ACE851
:10025000C009ACE8C009ACE8C009ACE8C00921F0AD
:1002600007018D46704710B50446AFF30080204665
:10027000BDE81040FFF781BF00487047280000200C
:1002800001491820ABBEFEE72600020070470000BF
:10029000FEE7000070470000EFF3108072B600BF69
:1002A000FEE70000B0B50C46054600F021F9012834
:1002B0000AD10A2000F00AF82846214600F018F971
:1002C000012804BF0120B0BD0020B0BDB0B5044678
:1002D00000F01AF9054640F22000C2F20000007852
:1002E000611C18BF044400BF00F00EF9401BA0427F
:1002F000FAD3B0BD2DE9F04F82B00E68002E00F0A9
:10030000F38041F20042C4F20102042340F2004EA5
:10031000904208BF03234FF6FF7CC4F2010E009306
:1003200000240123C1F2100C4FF0000A4FF0000925
:1003300041E0012504F00C030F279F402BEA07073B
:1003400005FA03F33B4342F826304E6840F20C4571
:10035000F202DEF8082054BF22EA080242EA08024C
:10036000C4F20105CEF808202A68B30254BF22EA7D
:10037000080242EA08022A60B303DEF8042054BFF0
:1003800022EA080242EA0802F303CEF80420DEF86B
:1003900000204FF0010354BF22EA080242EA08029B
:1003A000CEF800200E680AF1010A36FA0AF204F1CA
:1003B000040400F0998003FA0AFB16EA0B08F1D056
:1003C0004A68624510DC122A50D8DFE802F0330A8E
:1003D00041454F4F4F4F4F4F4F4F4F4F4F4F4F484C
:1003E0004C00D1F80C9041E04FF6FF75C1F22105A9
:1003F000AA420FDC0025C1F21105AA421AD000253D
:10040000C1F21205AA4215D00025C1F22105AA4267
:1004100010D02BE00025C1F22205AA420AD0002507
:10042000C1F23105AA4205D00025C1F23205AA4227
:100430001CD100BF8A6842B1012A14BFC0F814B0B1
:10044000C0F810B04FF0080910E04FF004090DE0BB
:10045000CA6802F1080909E04FF0000906E0CA681D
:1004600002F1040902E0CA6802F10C0922460546BD
:10047000B8F5807F24BF203A04352E680F279740B7
:10048000BE4309FA02F232432A60CA79D2067FF5E6
:1004900089AF41F21803C4F202031A684FEA9A06C0
:1004A00042F001021A601A6840F6000302F00102ED
:1004B0000192019AAEF57E7252F826B0C4F20103A1
:1004C00098420FD040F60043C4F2010398423FF433
:1004D00030AF41F20003C4F20103009D984208BF0F
:1004E000022527E7002525E702B0BDE8F08F0000D0
:1004F0008068084018BF012070470000002A08BF2C
:10050000090401617047000040F20020C2F20000BF
:1005100000687047F0B581B0B0B3044690F83D0074
:1005200028B9002084F83C00204600F055F924202A
:1005300084F83D002068016821F001010160016834
:1005400041F400410160016821F40041016000F0C4
:10055000C7FA48F28041C0F21E0140F600126568F9
:1005600088424FF00001C0F23D0248F2A16C4FF00A
:10057000000338BF01219042C0F2010C38BF0123B3
:10058000654538BF0B4613B1012001B0F0BD4DF6F3
:100590008361C4F21B31A0FB011221684FEA924E25
:1005A0004B684FF4967623F03F0343EA92434B6047
:1005B00044F6D3530F6A0EFB06F6C1F26203A6FBA4
:1005C000033627F03F03B709654538BF970C7A1CFF
:1005D0001A430A62CA6948F2A0674CF6FF73C0F278
:1005E0000107BD4222EA030C0AD801386A00B0FBB9
:1005F000F2F001306FF31F30042898BF04202BE085
:10060000A368A0F1010E9BB119206843BEFBF0F076
:100610000422013062F31F30000512D09BB1192073
:100620006843BEFBF0F00422013062F31F3011E09A
:1006300005EB4500BEFBF0F001306FF31F30000505
:10064000ECD1012008E005EB4500BEFBF0F00130E5
:100650006FF31F3040F4004040EA0C00C8610868A6
:10066000D4E9072320F0C0001043184308608868CD
:1006700048F2FF3204F10C0790438CCF184310432B
:10068000A6698860C86820F0FF0038433043C8601E
:10069000086840F00100086000202021206484F8F0
:1006A0003D10206384F83E0001B0F0BD2DE9F04319
:1006B00083B0994616460F460446FFF725FF94F887
:1006C0003D1020290ED102210546C0F2100120461E
:1006D00001221923009501F0EDF818B994F83C00B7
:1006E000012803D1022003B0BDE8F0830121226874
:1006F00084F83C101368DDE90B080A99DB0703D185
:10070000136843F001031360136823F4006313605C
:10071000212284F83D20402284F83E2000222264D9
:1007200061626085608D394620850020CFF6FF70BC
:10073000E062204632464B46CDF80080019501F03C
:1007400023F830B3012003B0BDE8F08320464146D2
:100750002A4601F045F928BB606A2168034613F870
:10076000012B0A61228D6362571E2785638D3F042A
:10077000A3F1010363854B6918BF13F0040308D08C
:10078000437802300B616062901E2085608D0138D5
:100790006085208D0028D9D1204641462A4601F0A7
:1007A00053F840B1206C0428CCD12068016841F492
:1007B00000710160C6E72068016841F400710160C2
:1007C000202084F83D00002084F83E0084F83C009E
:1007D00003B0BDE8F083000010B586B0006845F2B4
:1007E0000041C4F2000188424FF00000CDE904004E
:1007F000CDE9020001D006B010BD41F21804C4F2E8
:100800000204206802A940F008002060206800F07F
:100810000800019001984FF440700290122003905C
:100820000320059040F60040C4F20100FFF762FD8E
:100830000420C4F20100016841F0E06141F00201CE
:100840000160606840F400106060606800F40010AF
:100850000190019806B010BD40F2200040F2002146
:10086000C2F20000C2F2000100780A681044086079
:100870007047000080B542F20000C4F20200016837
:1008800041F010010160032000F066F80F2000F035
:1008900005F800F02BF8002080BD0000B0B540F254
:1008A0002002C2F2000240F21C011278C2F20001E2
:1008B0004FF47A730968B3FBF2F20446B1FBF2F12C
:1008C000084600F0E7FA0F2C4FF001050CD858B994
:1008D0004FF0FF3021460022002500F02DF840F2B5
:1008E0002400C2F2000004602846B0BD82B041F28C
:1008F0001800C4F202000168022241F00101016007
:10090000016801F0010101910199416841F08051B4
:100910004160406800F08050009000980420C4F2CC
:100920000100016862F31A61016002B070470000C3
:1009300080B501F09FFD80BD70B514460D4606469A
:1009400001F0A8FD2946224601F036FA014630465C
:1009500001F0A8FD70BD000080B501F0B5FD80BDBF
:100960002DE9F04381B0002800F0898042F20008B0
:10097000C4F202080446D8F800000D4600F0070053
:1009800088420CD2D8F8000020F007002843C8F8AD
:100990000000D8F8000000F00700A8426FD12068DE
:1009A00041F204098107C4F2020917D5410705D5B0
:1009B000D9F8001041F4E061C9F80010010705D52D
:1009C000D9F8001041F46051C9F80010D9F80010AE
:1009D000A26821F0F0011143C9F80010C00745D109
:1009E000D8F8000000F00700A8420CD9D8F80000A1
:1009F00020F007002843C8F80000D8F8000000F0F5
:100A00000700A8423BD12068410707D5D9F800105C
:100A1000E26821F4E0611143C9F80010000708D52D
:100A2000D9F80000216920F4605040EAC100C9F8FB
:100A3000000000F079F8D9F8001042F2CC72C1F34E
:100A40000311C0F60002515C40F21C0220FA01F1D1
:100A500040F22400C2F200000068C2F200021160FD
:100A6000FFF71CFF002001B0BDE8F083606802289A
:100A700009D0012829D159F8041C890307D4012081
:100A800001B0BDE8F08359F8041C8901F7D5D9F805
:100A9000001021F003010843C9F80000FFF734FDFE
:100AA000064641F2883700BFD9F80000616800F0BF
:100AB0000C00B0EB810F93D0FFF726FD801BB842EE
:100AC000F2D9032001B0BDE8F08359F8041C89076E
:100AD000D5D5DCE740F21C00C2F200000068704788
:100AE00080B5FFF7F7FF41F20401C4F20201096883
:100AF00042F2DC72C1F30221C0F60002515CC84030
:100B000080BD000080B5FFF7E5FF41F20401C4F2AB
:100B10000201096842F2DC72C1F3C221C0F6000290
:100B2000515CC84080BD000041F2040CC4F2020CCC
:100B3000DCF8003003F00C00082841F20020C0F27D
:100B40007A0018BF7047C3F383420AA18A5CD903B5
:100B500005D440F60010C0F23D0050437047DCF869
:100B6000001008A3C1F34041595C5043B0FBF1F0C1
:100B7000704700BF02030405060708090A0B0C0DA5
:100B80000E0F1010010200002DE9F04182B0002884
:100B900000F0C4800446007841F20006C007C4F2A9
:100BA000020643D0706800F00C00042817D070686B
:100BB00000F00C00082802D17068C0030FD46568EB
:100BC0002DB1B5F5A02F10D0B5F5803F11D030680C
:100BD00020F480303060306820F480200CE03068F1
:100BE000800323D5606808BB98E0306840F480201B
:100BF0003060306840F480303060FFF785FC002DB5
:100C0000054610D03068800310D4FFF77DFC401BF0
:100C10006428F7D904E100BFFFF776FC401B642885
:100C20004FF0030077D830688003F5D42078800730
:100C300018D5706810F00C0F07D0706800F00C0029
:100C4000082826D17068C00323D43068800702D5F5
:100C50002069012862D13068616920F0F80040EA1B
:100C6000C1003060207800073DD5A06938B300206E
:100C7000C4F242200121C0F88014FFF745FC05466C
:100C8000706A80072DD4FFF73FFC401B0228F7D97C
:100C9000C6E02069002840F20000C4F2422000F0C3
:100CA000968001210160FFF72FFC05463068800720
:100CB000D1D4FFF729FC401B0228F7D9B0E000206F
:100CC000C4F242200021C0F88014FFF71DFC054645
:100CD000706A800707D5FFF717FC401B0228F7D979
:100CE0009EE001F095F9207840071BD4E5698DB1AD
:100CF000706800F00C00082847D1012D0ED07068F4
:100D0000216A00F480328A4208D1616A00F47010CE
:100D1000884203D1002002B0BDE8F081012002B07A
:100D2000BDE8F081F06910F0805808D1F06940F01A
:100D30008050F061F06900F080500190019847F216
:100D40000007C4F200073868C00510D4386840F4C2
:100D500080703860FFF7D8FB054600BF3868C005D3
:100D600005D4FFF7D1FB401B6428F7D958E0E568AC
:100D70001DB1052D3CD0012D3ED0306A20F0010080
:100D80003062306A20F0040039E00027C4F24227C4
:100D900000203866FFF7B8FB022D05460CD100BFD6
:100DA0003068800154D5FFF7AFFB401B02284FF09D
:100DB0000300F5D9AFE700BF30688001AAD5FFF77F
:100DC000A3FB401B02284FF00300F5D9A3E7002145
:100DD0000160FFF799FB0546306880077FF542AF59
:100DE000FFF792FB401B02284FF00300F4D992E773
:100DF000306A40F004003062306A40F00100306236
:100E0000FFF782FB002D054641F2883714D000BF62
:100E1000306A800713D4FFF777FB401BB842F7D93D
:100E2000032002B0BDE8F081FFF76EFB401BB84223
:100E30004FF003003FF66FAF306A8007F4D4B8F18B
:100E4000000F7FF453AFF06920F08050F0614DE760
:100E5000206AB0F5803F05D17168A26821F40031A5
:100E6000114371607168626A21F474111043084380
:100E7000706001203866FFF747FB04463068800148
:100E80003FF548AFFFF740FB001B02284FF003007F
:100E9000F4D940E780B501F0DFF880BD704700006D
:100EA0007047000010B590F83C20012A4FF0020274
:100EB00031D0012380F83C3080F83D200268D2F820
:100EC00004E0D2F808C00C682EF07003234340F20F
:100ED000FF74C4F20004A242536005DCB2F1804FFB
:100EE0000ED040F2004307E042F60043C4F2010393
:100EF0009A4205D040F60003C4F200039A4204D19E
:100F000049682CF08003194391600121002280F888
:100F10003D1080F83C20104610BD0000002804BFA2
:100F20000120704710B5044690F83D0028B9002014
:100F300084F83C00204600F01FF8022084F83D00B1
:100F40002068211D01F0DEF8012084F8460084F8B5
:100F50003E0084F83F0084F8400084F8410084F8A3
:100F6000420084F8430084F8440084F8450084F883
:100F70003D00002010BD000081B0006840F200413B
:100F8000C4F20001884201D001B0704741F21C0058
:100F9000C4F20200016841F002010160006800F043
:100FA00002000090009801B07047000010B50446A0
:100FB00090F83C0001284FF0020008BF10BD01224C
:100FC00084F83C2084F83D0020684FF677738268EF
:100FD0009A4382600A684F2A0FDC1F2A22DD202AEA
:100FE00023D0302A21D0402A4DD14B68CA681946F7
:100FF00001F0B0F9206840213BE06F2A17DDB2F51F
:10100000005F20D0B2F5805F2AD0702A3BD1D1E9B1
:10101000012CCB68614601F0CDF82068816841F071
:1010200077011AE00AB1102A2DD1114621E0502A89
:1010300018D0602A27D14B68CA68194601F09CF97C
:101040002068602115E0D1E9012CCB68614601F0F0
:10105000B1F82068816841F48041816000200BE094
:10106000002009E04B68CA68194601F073F920684E
:10107000502101F0ABF80020012184F83D1000213F
:1010800084F83C1010BD0120F6E70000002804BFE2
:10109000012070472DE9F047044690F83D000D46C9
:1010A00028B9002084F83C00204600F049F80220CE
:1010B00084F83D00206844F2070281689143816012
:1010C000211D01F01FF820684FF6FF7881688269C2
:1010D000D0F820C0D5E9003ED5E9026A43EA01090B
:1010E000AB6922EA080246EA03234FF6FC46B34303
:1010F000D5E9076742EA0A0229691A4342EA062249
:1011000042EA01112CF022026B6942EA0E0241EA26
:10111000073142EA0312C0F808908161026201209F
:1011200084F8460084F83E0084F83F0084F84200CA
:1011300084F8430084F83D000020BDE8F0870000FB
:1011400080B586B000680021B0F1804FCDE9041170
:101150000391029101D006B080BD41F21800C4F2A3
:101160000200426842F001024260426802F001025D
:101170000192019A026842F004020260006800F0E5
:101180000400019001980320CDE9020101200490A0
:1011900040F60000C4F2010002A9FFF7ABF81C20E2
:1011A00000210022FFF7C8FB1C20FFF7C1FB06B09F
:1011B00080BD000010B5044690F83E0094F83F2032
:1011C00094F8423094F843C0042907D089B9012823
:1011D0004FF0010008BF012B23D010BD012A4FF0B2
:1011E000010008BFBCF1010FF7D1022084F83F00D5
:1011F00012E001284FF0010008BF012AEDD1012BB8
:10120000EBD1BCF1010F18BF10BD022084F83E00E5
:1012100084F83F0084F8420084F84300042907D191
:101220000EE0022084F83E0084F84200042907D032
:1012300009B9002105E020680021012200F0A8FF83
:1012400004212068012200F0A3FF2068016841F01A
:1012500001010160002010BD7047000010B5044678
:1012600000680169890744BFC1685FEA817138D4A9
:1012700020680169490744BFC1685FEA41713CD4F5
:1012800020680169090744BFC1685FEA017141D460
:1012900020680169C90644BFC1685FEAC16145D4DD
:1012A00020680169C9071CBFC1685FEAC1714AD1E2
:1012B00020680169090644BFC1685FEA016149D439
:1012C00020680169490644BFC1685FEA416148D4AA
:1012D00020680169890644BFC1685FEA816147D41B
:1012E00010BD6FF002010161012121778069800743
:1012F00045D02046FFF7B0FF47E06FF004010161E1
:1013000002212177806910F4407F41D02046FFF709
:10131000A3FF43E06FF00801016104212177C06958
:1013200080073ED02046FFF797FF40E06FF01001A6
:10133000016108212177C06910F4407F3AD020462E
:10134000FFF78AFF3CE06FF001010161204600F0E9
:1013500041F9ADE76FF0800101612046FFF79EFD86
:10136000AEE76FF040010161204600F051F9AFE7B0
:101370006FF0200101612046FFF792FD10BD20466D
:1013800000F04CF8204600F0C7F8002020776FE707
:10139000204600F043F8204600F0BEF800202077F9
:1013A0006EE7204600F03AF8204600F0B5F800203D
:1013B00020776DE7204600F031F8204600F0ACF8C9
:1013C000002020776CE7000080B586B0016840F20D
:1013D0000040C4F2000081424FF00001CDE9041149
:1013E000CDE9021101D006B080BD41F21801C4F26E
:1013F00002010A6800F5823042F004020A600968BE
:1014000001F0040101910199C0210291022103918F
:10141000059102A9FEF76EFF06B080BD704700007F
:10142000B0B5044690F83C00012804BF0220B0BDCE
:101430000D464FEAB2010120032984F83C0037D859
:10144000DFE801F0020A12222068294600F0C6FEF9
:10145000206850F8181F0EE02068294600F0EEFEC4
:10146000206850F8181F16E02068294600F01AFF7F
:10147000206850F81C1F41F008010160016821F04C
:101480000401016029690FE02068294600F03CFF53
:10149000206850F81C1F41F400610160016821F4CC
:1014A000806101602969090202681143016000201E
:1014B000002184F83C10B0BD002804BF0120704713
:1014C00010B5044690F83D0028B9002084F83C008F
:1014D000204600F01FF8022084F83D002068211DFE
:1014E00000F010FE012084F8460084F83E0084F8E5
:1014F0003F0084F8400084F8410084F8420084F8FA
:10150000430084F8440084F8450084F83D0000203E
:1015100010BD00007047000070470000B0B50446E1
:1015200041B1082909D0042914BF04F1410004F194
:101530003F0004E004F13E0001E004F140000078C7
:1015400001281CBF0120B0BD022041B1082909D0EB
:10155000042914BF84F8410084F83F0004E084F8B3
:101560003E0001E084F84000206842F64445012234
:10157000C4F2010500F00CFE2068A5F14401884288
:1015800003D1296841F40041296040F2FF71C4F29F
:101590000001884205DCB0F1804F0ED040F20041DE
:1015A00007E042F60041C4F20101884205D040F64E
:1015B0000001C4F20001884206D1816801F00701F0
:1015C000062904BF0020B0BD016841F0010101609F
:1015D0000020B0BD40F2E001C2F20001884218BF15
:1015E0007047086840F288010068C2F20001C00636
:1015F0000A884FF0640058BF6FF06300104482B255
:1016000042F2D0039A4288BF002008807047000051
:1016100070470000002804BF0120704710B5044641
:1016200090F8410028B9002084F84000204600F0DE
:1016300021F8242084F841002068C16821F4005179
:10164000C160204600F0AAFE2068016921F49041A3
:101650000161416921F02A014161C16841F40051F1
:10166000C16000202021606484F8411084F8421099
:10167000606310BD10B586B0006844F60001C4F286
:10168000000188424FF00001CDE90411CDE90211BB
:101690002DD043F60001C4F20101884258D141F235
:1016A0001800C4F20200016840F6000441F48041D1
:1016B00001600168C4F2010401F4804101910199C3
:1016C000016841F004010160006802A900F0040013
:1016D000019001984FF400700290022003900320C3
:1016E00005902046FEF706FE4FF4806028E041F2A8
:1016F0001800C4F20200416841F480214160416851
:1017000001F4802101910199016841F00801016013
:10171000006802A900F00800019001984FF4806071
:101720000290022003900320059040F60000C4F2CE
:10173000010000F580642046FEF7DCFD4FF40060F8
:1017400002900020CDE9030002A92046FEF7D2FD59
:1017500006B010BDFEE700000268516949054FF070
:1017600000010FD56FF4806353612022016380F87C
:101770003D2080F83E10026C42F00402026480F8C2
:101780003C100121084670472DE9F04383B0044620
:1017900000680D4601680A9F0B9E41F480719946CE
:1017A0009046016020464FF0011100223B46009612
:1017B00000F080F850B120680068C00544BF4FF4C5
:1017C00000702064032003B0BDE8F083206805F0BA
:1017D000FE0101610221C0F2010120463A46334672
:1017E00000F0B2F818B1012003B0BDE8F08300208A
:1017F0000290206832464169029180693946029020
:101800000298204600F0ECF840B1206C0428EAD1A0
:101810002068016841F400710160E4E7B9F1010F4B
:101820000AD020684FEA1821016120463946324625
:1018300000F0D6F80028E8D120685FFA88F101614D
:10184000002003B0BDE8F083F0B581B00446006825
:10185000406940071AD415460E464F1C08E000BFE9
:1018600020684069400714D52068406940070DD4BE
:101870002046FFF771FFC8B9002FF5D0FEF744FEF0
:10188000002EEDD0401BB042EED9E9E7002001B0B8
:10189000F0BD00202021206384F83D1084F83E0034
:1018A000216C41F02001216484F83C00012001B04A
:1018B000F0BD00002DE9F047DDF82080994616467E
:1018C000044601F47F078DB203F1010A0EE000BF68
:1018D0002068B7F5803F14BF1830143000682840E6
:1018E000401BB0FA80F04009B0421DD02068B7F527
:1018F000803F14BF1830143000682840401BB0FAF5
:1019000080F04009B0420CD1BAF1000FEED0FEF7E2
:10191000FBFDB9F1000FDBD0A0EB08004845E5D98D
:10192000D6E70020BDE8F08700202021206384F85E
:101930003D1084F83E00216C41F02001216484F8C0
:101940003C000120BDE8F0872DE9F0410446006825
:10195000984643698FB203EA0701B94202D10020D9
:10196000BDE8F0814169490517D41646551C00BFF2
:101970005DB1FEF7C9FD1EB1A0EB0800B04204D96D
:10198000206840693840B8421ED12068416939401A
:10199000B942E4D041694905EAD5016841F40071D2
:1019A00001606FF48061416100202021206384F890
:1019B0003D1084F83E00216C41F00401216484F85C
:1019C0003C000120BDE8F08100202021206384F844
:1019D0003D1084F83E00216C41F02001EEE700004C
:1019E000F0B581B004460068406900061AD4154677
:1019F0000E464F1C08E000BF20684069000614D561
:101A00002068406900060DD42046FFF7A5FEC8B93E
:101A1000002FF5D0FEF778FD002EEDD0401BB04230
:101A2000EED9E9E7002001B0F0BD002020212063BD
:101A300084F83D1084F83E00216C41F020012164BF
:101A400084F83C00012001B0F0BD00002DE9F04712
:101A500086B0002741F21800CDE90477CDE902777E
:101A6000C4F20200016840F6000841F01001016074
:101A70000168C4F2010801F01001019101990168A7
:101A8000002241F0200101600168182401F02001CA
:101A900001910199016841F004010160016801F0C0
:101AA000040101910199016841F008010160006899
:101AB000182100F00800019001984046FEF71EFD35
:101AC00008F580652846032100224FF00309FEF740
:101AD00015FD02AE02944FF0010A02244046314641
:101AE000CDE903A70594FEF705FC28463146CDE96C
:101AF000029ACDE90474FEF7FDFB47F20800CDE938
:101B00000207284631460494FEF7F4FB4FF40840E0
:101B1000CDE90207404631460494FEF7EBFB06B0E0
:101B2000BDE8F08780B540F28C0045F20041C2F27A
:101B30000000C4F2000141F6802200234FF4804CE3
:101B4000C0F2060280E80E00C0E9033CC0E905339C
:101B5000C0E90733FEF7DEFC002818BFFEF79CFB48
:101B600080BD0000B0B58CB003AC20462421FEF748
:101B70002BFB40F2E000C2F200004FF08041002554
:101B8000012280E826002146CDE90055C0E9032561
:101B90008561CDE90325CDE90525CDE90755CDE9D9
:101BA00009250B95FFF772FA002818BFFEF774FBA2
:101BB00040F2E000C2F200006946CDE90055FFF7AF
:101BC00071F9002818BFFEF767FB0CB0B0BD00002C
:101BD00010B58EB040F2281040F200420021C2F24F
:101BE0000000C4F2000242F2CF030D91CDE90B11C7
:101BF000CDE90911CDE90711CDE90511CDE90311B1
:101C0000CDE90111C0E90021C0E902130161816140
:101C1000FFF784F9002818BFFEF73EFB4FF4805011
:101C20000A9040F22810C2F200000AA9FFF7BEF99C
:101C3000002818BFFEF730FB40F22810C2F2000067
:101C4000FFF73AFC002818BFFEF726FB40F22810E9
:101C50000024C2F2000008A9CDE90844FFF722F9E8
:101C6000002818BFFEF718FB6020CDE9010440F200
:101C70002810C2F2000001A9002203940594FFF786
:101C8000CFFB002818BFFEF707FB40F22810C2F276
:101C9000000001A90422FFF7C3FB002818BFFEF7CC
:101CA000FBFA40F22810C2F20000FFF78DFB0EB0E5
:101CB00010BD000080B540F2701043F60001C2F282
:101CC0000000C4F2010100234FF00C0C4FF4E1328C
:101CD00080E80E00C0E90333C0E905C3C361FFF724
:101CE00099FC002818BFFEF7D7FA80BD80B540F2F6
:101CF000B81044F60001C2F20000C4F20001002353
:101D00004FF00C0C4FF4E13280E80E00C0E90333D1
:101D1000C0E905C3C361FFF77DFC002818BFFEF7CB
:101D2000BBFA80BDFEE7000010B5012814D00028E2
:101D300018BF10BD481C40F60000C4F2010000F5B9
:101D4000806420461BD001291CD101210022FEF70E
:101D5000D5FB204602210EE040F60004481CC4F2E8
:101D60000104204615D001291AD108210022FEF7CE
:101D7000C5FB204610210122FEF7C0FB10BD01214A
:101D8000012201E001210022FEF7B8FB20460221DA
:101D90000CE008210122FEF7B1FB2046102105E0EE
:101DA00008210022FEF7AAFB204610210022FEF7A0
:101DB000A5FB10BDFEE7000000F0070080F0070360
:101DC000042B28BF04234FF0FF3C03380CFA03F325
:101DD00038BF0020994381400CFA00F022EA00004D
:101DE00008437047B0B50024A4F15000C0B200F021
:101DF000DDF80020002500F0D9F8102000F0D6F81A
:101E0000002000F0EBF8681C45B2B5F1FF3FF7DCAD
:101E1000E0B20134072828BFB0BDE5E780B5C8208F
:101E2000FEF754FA00F004FB80BD000010B5044634
:101E3000A1F15000C0B200F0B9F82009103000F054
:101E4000B5F804F00F0000F0B1F810BDF0B581B0A6
:101E50000D46044640B2002844BF02350024E9B2D2
:101E600020461E46A2F12007FFF7E0FF102EF8B231
:101E70001DD142F60C21C0F6000101EB00164FF017
:101E8000FF3700BFF019407800F0A8F80137072F9E
:101E9000F8D1681CC1B22046FFF7C8FFF41D082521
:101EA00014F8010F00F09AF8013DF9D111E042F267
:101EB000E47100EB4000C0F6000101EB40044FF07C
:101EC000FF3500BF6019407800F088F80135052D16
:101ED000F8D101B0F0BD00002DE9F04F81B0002B2A
:101EE00041D007460A981C4692468B46591E450823
:101EF00000264FF000094FF00008009111E000BFEC
:101F00004FF0010905FB067140F03002C8B2D2B2B1
:101F100059460A9BFFF79AFF0136B44208F10108BF
:101F200021D06FEA08002044C1B20A2000F042FC30
:101F3000BAFBF0F04CF6CD41CCF6CC41A0FB01123F
:101F4000D10801EB8101B9F1000FA0EB4100D9D11B
:101F50000099B142D6DD0028D2D105FB0670594662
:101F6000C0B22022D5E701B0BDE8F08F2DE9F041E5
:101F700015461278002A08BFBDE8F08198460E4643
:101F800007460024F8B2F1B2D2B24346FFF75EFF33
:101F90000837F8B201347828E0B288BF02362A5CEC
:101FA00088BF0027002AEDD1BDE8F08180B584B05C
:101FB0008DF80F0001200DF10F01CDE9001040F266
:101FC0008C004FF4807CC2F20000782100220123B3
:101FD000CDF808C0FEF76AFB04B080BD80B584B0C0
:101FE0008DF80F0001200DF10F01CDE9001040F236
:101FF0008C004FF4807CC2F2000078214022012343
:10200000CDF808C0FEF752FB04B080BD7047000059
:1020100081B040F21C00C2F20000006844F6D351C7
:10202000C1F26201A0FB0101480A009000BF0098C4
:10203000411E00280091F9D101B07047704700009F
:1020400080B500F0B3FB40F22811C2F2000109682C
:102050004863886380BD0000B0B501380024B4EB4C
:10206000106F1CBF0120B0BD4EF21005CEF200056E
:1020700068604FF0FF300F2100F014FA0720AC60C9
:1020800028602046B0BD000080B5FEF7E5FB80BDAE
:1020900070B590B006AC20462821FEF795F80120D7
:1020A00006900A904FF4E01000254FF4803102268C
:1020B0000F9020460595CDE90355CDE90155CDE9B1
:1020C0000715CDE90D61FEF75FFD78B90F20CDE969
:1020D00001064FF48060CDE9040501A802210395B3
:1020E000FEF73EFC002804BF10B070BDFEF7D4F828
:1020F0007047000080B540F2E000C2F20000FFF738
:10210000ADF880BD10B540F2FF7E0368C4F2000E4A
:1021100042F6004C7045C4F2010C05DCB0F1804F72
:102120000AD040F2004203E0604505D040F60002CC
:10213000C4F20002904203D14A6823F070031343B3
:10214000704505DCB0F1804F0AD040F2004203E058
:10215000604505D040F60002C4F20002904203D16F
:10216000CA6823F44073134323F080024B69D1F80B
:1021700000E08C681A4360450260C462C0F828E041
:1021800002D10969CCF830100121416110BD000075
:1021900080B501F01F014FF0010CD0F820E00CFADF
:1021A00001F32EEA03030362036A02FA01F1194301
:1021B000016280BDD0F808C011432CF47F4C41EA85
:1021C000032141EA0C01816070470000826822F01F
:1021D0007002114341F0070181607047B0B5026A97
:1021E000036A42F6004423F001030362D0F804E0DE
:1021F000D0F818C08B6822F00202C4F20104A04299
:1022000042EA030205D1CB6822F00C0223F004035A
:102210001A430B68A04207D1D1E905452EF4407E50
:1022200044EA0E0444EA050E2CF073052B43C0F873
:1022300004E08361496841630262B0BDB0B5026ADF
:10224000036A42F6004423F010030362D0F804E06E
:10225000D0F818C08B6822F02002C4F20104A0421A
:1022600042EA031207D1CB686FF0400522F0C002AA
:1022700005EA03131A430B68A04207D1D1E90545CB
:102280002EF4406E4EEA840444EA850E2CF4E645B2
:1022900045EA0323C0F804E0836149688163026270
:1022A000B0BD0000B0B5026A036A42F6004423F4F0
:1022B00080730362D0F804E0D0F81CC08B6822F46D
:1022C0000072C4F20104A04242EA032207D1CB68A3
:1022D00040F2FF451B0222F44062AB431A430B68F5
:1022E000A04207D1D1E905452EF4405E4EEA041420
:1022F00044EA051E2CF073052B43C0F804E0C361CB
:102300004968C1630262B0BDB0B5D0F820C0026AAE
:1023100042F6004522F4805202624268C3690C68AA
:10232000D1F808E0C4F20105A84204D14D6922F4B5
:10233000804242EA851223F4E64343EA04234260E2
:10234000C3612CF40055496845EA0E32016402620B
:10235000B0BD0000D0F820C0036A23F0010303627F
:10236000836923F0F00343EA02122CF00A031943B5
:102370008261016270470000D0F820C0036A23F038
:1023800010030362836923F4704343EA02322CF0A2
:10239000A00343EA011182610162704710B504464F
:1023A0000068D4E902C22369016921F44051114354
:1023B0000161616943EA0C021143C26841F20C6396
:1023C0009A431143C1604169A26921F440711143EC
:1023D00043F60002C4F201029042416102D0FEF7CE
:1023E0007FFB01E0FEF78EFB6268192148439100F4
:1023F000B0FBF1F048F21F51C5F2EB11A0FB012335
:102400005A096FF0630302FB0300322303EB001051
:10241000A0FB0101F02303EA5113206803EB021231
:10242000C1F343111144816010BD0000FEE70000BC
:102430002DE9F04184B040F2000840F28C04002500
:10244000C2F200084FF480770126C2F2000400BFF8
:1024500008EB0500CDE90006204678210022012383
:102460000297FEF723F901351B2DF1D104B0BDE829
:10247000F0810000002848BF704700F01F010122D2
:1024800002FA01F14EF200124009CEF2000242F8C7
:10249000201070474EF60C50CEF200000068C0F3DA
:1024A000022070474EF6145300F00F02CEF20003E4
:1024B00009011A4400F16043B0F1FF3FC8BF03F5C2
:1024C00064421170704700004EF60C51CEF20001CC
:1024D0000A684FF6FF031A4060F30A2242F0806058
:1024E00040F0FD700860704782B040F60044C4F2CE
:1024F0000104FEF7BFF9FFF7CBFDFFF7A7FAFFF7DF
:1025000067FBFFF70FFBFFF7D5FBFFF7EFFBFFF7CD
:1025100029FBFFF783FCFFF765FC40F22815C2F2A8
:10252000000528460021FEF7F9FF28460421FEF7A2
:10253000F5FF40F2E005C2F2000528686FF00101E6
:10254000016128463C21FEF735FE2868C16841F04C
:102550000101C16000200021FFF7E6FB01200021FE
:10256000FFF7E2FB83A20020002108230826FFF7E3
:10257000FDFC82A2002001210823FFF7F7FC81A2C5
:10258000002002210823FFF7F1FC80A20020032194
:102590000823FFF7EBFC7FA23C2000210823FFF774
:1025A000E5FC7EA23C2001210823FFF7DFFC7DA291
:1025B0003C2002210823FFF7D9FC40F28807A4F54C
:1025C0008065C2F2000707E000200021FFF7ACFBA6
:1025D00001200121FFF7A8FB28464FF40061FDF719
:1025E00061FE02461C20002101230096FFF774FCC7
:1025F00024200021002204230096FFF76DFC2046D2
:102600000821FDF74FFE02461C2001210123009600
:10261000FFF762FC24200121002204230096FFF72B
:102620005BFC28464FF40041FDF73CFE02461C20AF
:10263000022101230096FFF74FFC242002210022F3
:1026400004230096FFF748FC20464FF48051FDF725
:1026500029FE02465820002101230096FFF73CFC8A
:1026600060200021002204230096FFF735FC20465D
:102670004FF40051FDF716FE0246582001210123B8
:102680000096FFF729FC6020012100220423009618
:10269000FFF722FC20464FF48041FDF703FE02467F
:1026A0005820022101230096FFF716FC602002212A
:1026B000002204230096FFF70FFC3A883020032104
:1026C00004230096FFF708FC3888FFF7B9FC28467A
:1026D0004FF40061FDF7E6FD012825D120464FF4B7
:1026E0008041FDF7DFFD012808D100200021FFF720
:1026F0001BFB01204FF0FF3114E000BF20464FF4D8
:102700008051FDF7CFFD012806D100204FF0FF31A9
:10271000FFF70AFB012004E001200021FFF704FB82
:1027200000200021FFF700FB28464FF40041FDF791
:10273000B9FD01287FF450AF20464FF48051FDF7DA
:10274000B1FD01283FF440AF20464FF48041FDF732
:10275000A9FD012805D100200121FFF7E5FA01209C
:1027600004E001200021FFF7DFFA00200021FFF73D
:10277000DBFA31E7545F553A00000000545F4D3AF0
:1027800000000000545F443A00000000537065658B
:10279000643A0000425F4C3A00000000425F4D3A4C
:1027A00000000000425F523A00000000002848BFCD
:1027B00040427047002904BF0120704702460120B3
:1027C00001390B0602FB00F0FAD17047000000004F
:1027D00000000000010203040607080900000000D1
:1027E000010203040000000000000000002F0000B0
:1027F00000000700070000147F147F1400242A7FC4
:102800002A12006264081323003649552250000042
:102810000503000000001C224100000041221C00B2
:102820000014083E08140008083E0808000000A034
:102830006000000808080808000060600000002030
:1028400010080402003E5149453E0000427F40000E
:10285000004261514946002141454B310018141294
:102860007F10002745454539003C4A494930000161
:102870007109050300364949493600064949291EB0
:102880000000363600000000563600000008142212
:102890004100001414141414000041221408000212
:1028A0000151090600324959513E007C1211127C37
:1028B000007F49494936003E41414122007F414164
:1028C000221C007F49494941007F09090901003E56
:1028D0004149497A007F0808087F0000417F410094
:1028E000002040413F01007F08142241007F40400A
:1028F0004040007F020C027F007F0408107F003EF2
:102900004141413E007F09090906003E4151215ED7
:10291000007F091929460046494949310001017FD4
:102920000101003F4040403F001F2040201F003F6A
:102930004038403F0063140814630007087008071C
:1029400000615149454300007F41410000552A552F
:102950002A55000041417F000004020102040040AA
:1029600040404040000001020400002054545478CC
:10297000007F4844443800384444442000384444EC
:10298000487F00385454541800087E09010200188A
:10299000A4A4A47C007F080404780000447D4000C7
:1029A000004080847D00007F102844000000417FAB
:1029B0004000007C04180478007C08040478003887
:1029C0004444443800FC242424180018242418FC0F
:1029D000007C0804040800485454542000043F4478
:1029E0004020003C4040207C001C2040201C003C3B
:1029F0004030403C004428102844001CA0A0A07C8B
:102A0000004464544C4414141414141400000000C2
:102A1000000000000000000000000000000000F8BE
:102A200000000000000000333000000000100C0621
:102A3000100C0600000000000000000040C07840BC
:102A4000C0784000043F04043F040400007088FC88
:102A500008300000001820FF211E0000F008F000E0
:102A6000E018000000211C031E211E0000F0088851
:102A7000700000001E2123241927211010160E00BB
:102A8000000000000000000000000000000000E066
:102A9000180402000000000718204000000204187B
:102AA000E00000000040201807000000404080F0D7
:102AB000804040000202010F01020200000000F00D
:102AC000000000000101011F0101010000000000E1
:102AD0000000000080B07000000000000000000056
:102AE00000000000000101010101010100000000DF
:102AF0000000000000303000000000000000000076
:102B000080601804006018060100000000E0100852
:102B10000810E000000F102020100F00001010F827
:102B2000000000000020203F202000000070080866
:102B300008887000003028242221300000300888E6
:102B4000884830000018202020110E000000C0200E
:102B500010F8000000070424243F240000F808882F
:102B6000880808000019212020110E0000E01088BC
:102B700088180000000F112020110E0000380808EE
:102B8000C83808000000003F0000000000708808FE
:102B900008887000001C222121221C0000E010087F
:102BA0000810E0000000312222110F00000000C0D8
:102BB000C000000000000030300000000000008075
:102BC0000000000000008060000000000000804065
:102BD000201008000001020408102000404040407E
:102BE00040404000040404040404040000081020D1
:102BF0004080000000201008040201000070480816
:102C00000808F0000000003036010000C030C8287D
:102C1000E810E0000718272423140B000000C03838
:102C2000E0000000203C23020227382008F88888B2
:102C300088700000203F202020110E00C0300808BE
:102C400008083800071820202010080008F8080895
:102C50000810E000203F202020100F0008F888888E
:102C6000E8081000203F20202320180008F888885A
:102C7000E8081000203F200003000000C0300808D2
:102C80000838000007182020221E020008F808005B
:102C90000008F808203F210101213F20000808F822
:102CA000080800000020203F202000000000080845
:102CB000F8080800C08080807F00000008F888C005
:102CC00028180800203F20012638200008F80800B6
:102CD00000000000203F20202020300008F8F800ED
:102CE000F8F80800203F003F003F200008F830C0FF
:102CF0000008F808203F200007183F00E0100808EF
:102D00000810E0000F10202020100F0008F808081D
:102D10000808F000203F210101010000E010080830
:102D20000810E0000F18242438504F0008F8888855
:102D300088887000203F2000030C30200070880835
:102D4000080838000038202121221C00180808F843
:102D5000080818000000203F2000000008F80800C4
:102D60000008F808001F202020201F000878880095
:102D700000C83808000007380E010000F80800F805
:102D80000008F800033C0700073C030008186880AF
:102D90008068180820302C03032C30200838C80025
:102DA000C83808000000203F200000001008080874
:102DB000C83808002038262120201800000000FE16
:102DC000020202000000007F40404000000C30C0C2
:102DD00000000000000000010638C00000020202EE
:102DE000FE000000004040407F00000000000402A0
:102DF00002020400000000000000000000000000CB
:102E000000000000808080808080808000020204BA
:102E100000000000000000000000000000008080B2
:102E2000808000000019242222223F2008F8008020
:102E300080000000003F112020110E0000000080E3
:102E400080800000000E1120202011000000008072
:102E50008088F800000E112020103F2000008080A4
:102E600080800000001F222222221300008080F0B8
:102E7000888888180020203F2020000000008080E3
:102E800080808000006B94949493600008F8008028
:102E900080800000203F210000203F200080989883
:102EA000000000000020203F2020000000000080E3
:102EB0009898000000C08080807F000008F8000023
:102EC00080808000203F24022D302000000808F878
:102ED000000000000020203F202000008080808033
:102EE00080808000203F20003F20003F80800080C5
:102EF00080800000203F210000203F2000008080D3
:102F000080800000001F202020201F008080008083
:102F10008000000080FFA12020110E000000008032
:102F200080808000000E112020A0FF808080800023
:102F30008080800020203F21200001000000808050
:102F4000808080000033242424241900008080E045
:102F5000808000000000001F202000008080000012
:102F600000808000001F202020103F2080808000F3
:102F70000080808000010E30080601008080008003
:102F8000008080800F300C030C300F000080800028
:102F9000808080000020312E0E3120008080800053
:102FA0000080808080818E70180601000080808003
:102FB000808080000021302C2221300000000000A1
:102FC000807C020200000000003F40400002027CC2
:102FD000800000000040403F0000000000000000B2
:102FE000FF00000000000000FF000000103000089B
:102FF00000000020280000002801000838300008E8
:1030000028000020E0070000440100080000000044
:10301000AE001040B081FFA1A6A83FC8D300D58064
:10302000D805D9F1DA12D8308D14AF000024F4009D
:08303000010000001000000087
:04000005080000ED02
:00000001FF
