:020000040800F2
:10000000280400200501000889050008870300086E
:100010002F0400084D010008190B00080000000023
:10002000000000000000000000000000C5080008FB
:100030005101000800000000A1080008B1090008F3
:100040001F0100081F0100081F0100081F01000810
:100050001F0100081F01000881010008E9010008D4
:100060001F0100081F0100081F0100081F010008F0
:100070001F0100081F0100081F0100081F010008E0
:100080001F0100081F0100081F0100081F010008D0
:100090001F0100081F0100081F0100081F010008C0
:1000A0001F0100081F0100081F0100081F010008B0
:1000B000150A00081F0100081F0100081F010008A1
:1000C0001F0100081F0100081F0100081F01000890
:1000D0001F010008650A00081F0100081F01000831
:1000E000B50100081F0100081F010008DFF810D04B
:1000F00000F01AF8004800473B0B0008AFF30080FF
:10010000280400200648804706480047FEE7FEE72F
:10011000FEE7FEE7FEE7FEE7FEE7FEE7FEE7FEE7B7
:10012000B5090008ED000008064C074D06E0E06840
:1001300040F0010394E8070098471034AC42F6D32E
:10014000FFF7D8FF5C1100087C11000800BFFEE734
:10015000704700EBC001C9004FF0E022516100215F
:1001600091610521116100BF4FF0E021096901F49F
:1001700080310029F8D004214FF0E022116170474E
:1001800010B5012000F050F801280DD101210748D9
:1001900000F0E9F828B906480088401E00B204497A
:1001A0000880012000F03AF810BD0000000C01406A
:1001B0000200002010B54FF4804000F035F801280F
:1001C0000DD18103064800F0CEF820B9054800881B
:1001D000401C044908804FF4804000F01FF810BD17
:1001E000000C01400000002010B5022000F01CF8B7
:1001F00001280DD10221074800F0B5F828B90648BA
:100200000088401C00B204490880022000F006F873
:1002100010BD0000000C01400200002001490860F0
:100220007047000014040140014600200022074BE3
:100230001B6803EA0102054B14331B680B4013B122
:100240000AB1012000E000207047000000040140D6
:100250002DE9F0410246002500260020002300245D
:10026000002791F803C00CF00F0591F803C00CF0C3
:10027000100CBCF1000F03D091F802C04CEA050548
:1002800091F800C0BCF1000F31D0146800202BE0C1
:100290004FF0010C0CFA00F3B1F800C00CEA0306B1
:1002A0009E4220D183004FF00F0C0CFA03F7BC43A1
:1002B00005FA03FC4CEA040491F803C0BCF1280FD2
:1002C00006D14FF0010C0CFA00FCC2F814C00AE091
:1002D00091F803C0BCF1480F05D14FF0010C0CFAA6
:1002E00000FCC2F810C0401C0828D1D31460B1F83B
:1002F00000C0BCF1FF0F34DD546800202EE000F197
:10030000080C4FF0010808FA0CF3B1F800C00CEA31
:1003100003069E4221D183004FF00F0C0CFA03F725
:10032000BC4305FA03FC4CEA040491F803C0BCF199
:10033000280F05D100F1080C08FA0CF8C2F8148057
:1003400091F803C0BCF1480F07D100F1080C4FF041
:10035000010808FA0CF8C2F81080401C0828CED317
:100360005460BDE8F0810246002093680B400BB159
:10037000012000E000207047016170470AB101616F
:1003800000E04161704700BFFEE710B500F052F891
:1003900001216B2000F034F800216C2000F030F8CF
:1003A0000921192000F02CF806211A2000F028F865
:1003B00018211B2000F024F818211C2000F020F840
:1003C00010BD70B5044600F0A9F8D02000F091F8F7
:1003D00000F05AF8204600F08CF800F055F800F0D4
:1003E0009DF8D12000F085F800F04EF800F05BF8A1
:1003F0000546012000F071F800F09EF8284670BD17
:1004000070B505460C4600F089F8D02000F071F870
:1004100000F03AF8284600F06CF800F035F8204675
:1004200000F067F800F030F800F086F870BD00BF0B
:10043000FEE7000008B50121082000F033FA14207F
:100440008DF803004FF44060ADF8000003208DF8F4
:10045000020069460448FFF7FBFE4FF44061024882
:10046000FFF78AFF08BD0000000C014010B54FF4F3
:1004700000610448FFF777FF04460A20FFF769FE92
:10048000204610BD000C014010B5012000F06EF8B0
:10049000012000F05DF8FFF7E9FF0446002000F0BE
:1004A00057F8204610BD70B50025012000F05EF819
:1004B00000240EE0012000F04BF8FFF7D7FF0128E1
:1004C00002D1802020410543002000F041F8601C4B
:1004D000C4B2082CEEDB284670BD10B50446204699
:1004E00000F044F8012000F033F8002000F030F86C
:1004F00010BD70B5054600240DE08021214101EAC0
:10050000050000F033F8012000F022F8002000F090
:100510001FF8601CC4B2082CEFDB70BD10B50120C1
:1005200000F024F8012000F013F8002000F01EF87D
:10053000002000F00DF810BD10B5002000F016F8F6
:10054000012000F005F8012000F010F810BD0000B7
:1005500010B5044622464FF480610348FFF70EFFB2
:100560000A20FFF7F6FD10BD000C014010B504464F
:1005700022464FF400610348FFF700FF0A20FFF70F
:10058000E8FD10BD000C0140704770B500240EE07E
:100590000021204600F0EFF8002504E0002000F0E4
:1005A0006FF9681CC5B2802DF8DB601CC4B2082C42
:1005B000EEDB70BD08B50121082000F073F91420AE
:1005C0008DF8030003208DF802004FF48070ADF821
:1005D000000069460A48FFF73BFE4FF40070ADF893
:1005E000000069460648FFF733FE01221102044865
:1005F000FFF7C4FE012251020148FFF7BFFE08BD0C
:10060000000C014070B50546002415E08020204113
:1006100000EA05024FF400710E48FFF7AFFE012219
:1006200011020C48FFF7AAFE00224FF4807109481E
:10063000FFF7A4FE601CC4B2082CE7DB0122110204
:100640000448FFF79BFE00224FF480710148FFF73A
:1006500095FE70BD000C014010B5012251020A4800
:10066000FFF78CFE012211020748FFF787FE0022E8
:100670004FF400710448FFF781FE00224FF48071AF
:100680000148FFF77BFE10BD000C014010B50022B1
:100690004FF400710648FFF771FE01221102044871
:1006A000FFF76CFE012251020148FFF767FE10BD03
:1006B000000C014070B5002406E0002500E06D1C30
:1006C000B5F57A7FFBD3641CB4F57A7FF5D3FFF7D9
:1006D00071FFAE2000F0C4F8D52000F0C1F88020F2
:1006E00000F0BEF8A82000F0BBF83F2000F0B8F8FA
:1006F000D32000F0B5F8002000F0B2F8402000F060
:10070000AFF8A12000F0ACF8C82000F0A9F8DA207A
:1007100000F0A6F8122000F0A3F8812000F0A0F865
:10072000CF2000F09DF8D92000F09AF8F12000F0D9
:1007300097F8DB2000F094F8302000F091F8A42026
:1007400000F08EF8A62000F08BF88D2000F088F8DD
:10075000142000F085F8AF2000F082F8FFF715FFB5
:1007600070BD10B50246012000E050430B1EA1F100
:100770000101FAD110BD70B505460C4645F0B00038
:1007800000F06EF8102141EA141000F069F804F04E
:100790000F0000F065F870BD2DE9F04105460E46EA
:1007A0001746721ED206110E6A1E5206100EFFF771
:1007B000E2FF002409E0A7F12001134A02EB011136
:1007C000085D00F05DF8601CC4B2082CF3DB721EFB
:1007D000D206110E6A1E012303EB4202D0B2FFF7CC
:1007E000CAFF00240BE0A7F12001074A02EB011227
:1007F00004F10801505C00F043F8601CC4B2082CFE
:10080000F1DBBDE8F08100006C0B00082DE9F0473A
:1008100081460E4690461F4600241DE0381B411EAF
:100820001020FFF79EFFB8FBF0F000F00F050A2D37
:1008300008DA05F13000C2B23019C1B24846FFF7FC
:10084000ABFF07E005F13700C2B23019C1B248462C
:10085000FFF7A2FF601CC4B2BC42DFDBBDE8F0873B
:1008600010B50446FFF7F8FE7820FFF7CBFE002016
:10087000FFF7C8FE2046FFF7C5FEFFF707FF10BDD4
:1008800010B50446FFF7E8FE7820FFF7BBFE4020D6
:10089000FFF7B8FE2046FFF7B5FEFFF7F7FE10BDE5
:1008A0007047000029B1064A92690243044B9A61DD
:1008B00004E0034A92698243014B9A617047000049
:1008C00000100240704710B500F002F810BD0000A3
:1008D0000CB50020019000903348006840F480304F
:1008E0003149086000BF3048006800F400300090D3
:1008F0000198401C0190009818B90198B0F5A06FBC
:10090000F1D12948006800F4003010B101200090B6
:1009100001E0002000900098012843D1234800689E
:1009200040F01000214908600846006820F00300EC
:1009300008600846006840F0020008601A484068F5
:10094000194948600846406848600846406840F4D5
:10095000806048600846406820F47C104860084683
:10096000406840F4E81048600846006840F0807035
:10097000086000BF0C48006800F000700028F9D043
:100980000948406820F0030007494860084640686D
:1009900040F00200486000BF0348406800F00C00CF
:1009A0000828F9D10CBD00000010024000200240D0
:1009B0007047000010B51348006840F0010011496D
:1009C000086008464068104908400E4948600846DB
:1009D00000680E4908400B4908600846006820F48A
:1009E000802008600846406820F4FE0048604FF40C
:1009F0001F008860FFF767FF4FF000600449086040
:100A000010BD0000001002400000FFF8FFFFF6FEDE
:100A100008ED00E010B50121880700F012F8012868
:100A200008D105480088401C034908800121880737
:100A300000F004F810BD000008000020CA43028244
:100A4000704730B50246002000230024158A05EACD
:100A50000103958905EA010413B10CB1012000E0FE
:100A6000002030BD10B540F22551094800F025F8AE
:100A700001280CD1064800F04AF806490870012008
:100A80000549087040F22551014800F007F810BDF3
:100A900000380140040000200500002010B50022AD
:100AA000002340F66A14A14200D100BF0A120124BB
:100AB0009440A3B2DC43048010BD70B5024600240C
:100AC00000230025002040F66A16B14200D100BF85
:100AD000C1F3421501F01F03012606FA03F3012DAD
:100AE00002D19689334006E0022D02D1168A3340A6
:100AF00001E0968A33400C12012606FA04F41688A7
:100B0000344013B10CB1012000E0002070BD01465B
:100B10008888C0F30800704700BFFEE702E008C8FD
:100B2000121F08C1002AFAD170477047002001E067
:100B300001C1121F002AFBD1704710B5FFF7BAFDA3
:100B4000FFF723FC00216B20FFF75AFCBB21192083
:100B5000FFF756FC1920FFF734FC04460223224617
:100B600001210846FFF752FE002010BD00000000E2
:100B7000000000000000000000000000000000F87D
:100B800000000000000000333000000000100C06E0
:100B9000100C0600000000000000000040C078407B
:100BA000C0784000043F04043F040400007088FC47
:100BB00008300000001820FF211E0000F008F0009F
:100BC000E018000000211C031E211E0000F0088810
:100BD000700000001E2123241927211010160E007A
:100BE000000000000000000000000000000000E025
:100BF000180402000000000718204000000204183A
:100C0000E00000000040201807000000404080F095
:100C1000804040000202010F01020200000000F0CB
:100C2000000000000101011F01010100000000009F
:100C30000000000080B07000000000000000000014
:100C4000000000000001010101010101000000009D
:100C50000000000000303000000000000000000034
:100C600080601804006018060100000000E0100811
:100C70000810E000000F102020100F00001010F8E6
:100C8000000000000020203F202000000070080825
:100C900008887000003028242221300000300888A5
:100CA000884830000018202020110E000000C020CD
:100CB00010F8000000070424243F240000F80888EE
:100CC000880808000019212020110E0000E010887B
:100CD00088180000000F112020110E0000380808AD
:100CE000C83808000000003F0000000000708808BD
:100CF00008887000001C222121221C0000E010083E
:100D00000810E0000000312222110F00000000C096
:100D1000C000000000000030300000000000008033
:100D20000000000000008060000000000000804023
:100D3000201008000001020408102000404040403C
:100D4000404040000404040404040400000810208F
:100D500040800000002010080402010000704808D4
:100D60000808F0000000003036010000C030C8283C
:100D7000E810E0000718272423140B000000C038F7
:100D8000E0000000203C23020227382008F8888871
:100D900088700000203F202020110E00C03008087D
:100DA00008083800071820202010080008F8080854
:100DB0000810E000203F202020100F0008F888884D
:100DC000E8081000203F20202320180008F8888819
:100DD000E8081000203F200003000000C030080891
:100DE0000838000007182020221E020008F808001A
:100DF0000008F808203F210101213F20000808F8E1
:100E0000080800000020203F202000000000080803
:100E1000F8080800C08080807F00000008F888C0C3
:100E200028180800203F20012638200008F8080074
:100E300000000000203F20202020300008F8F800AB
:100E4000F8F80800203F003F003F200008F830C0BD
:100E50000008F808203F200007183F00E0100808AD
:100E60000810E0000F10202020100F0008F80808DC
:100E70000808F000203F210101010000E0100808EF
:100E80000810E0000F18242438504F0008F8888814
:100E900088887000203F2000030C302000708808F4
:100EA000080838000038202121221C00180808F802
:100EB000080818000000203F2000000008F8080083
:100EC0000008F808001F202020201F000878880054
:100ED00000C83808000007380E010000F80800F8C4
:100EE0000008F800033C0700073C0300081868806E
:100EF0008068180820302C03032C30200838C800E4
:100F0000C83808000000203F200000001008080832
:100F1000C83808002038262120201800000000FED4
:100F2000020202000000007F40404000000C30C080
:100F300000000000000000010638C00000020202AC
:100F4000FE000000004040407F000000000004025E
:100F50000202040000000000000000000000000089
:100F60000000000080808080808080800002020479
:100F70000000000000000000000000000000808071
:100F8000808000000019242222223F2008F80080DF
:100F900080000000003F112020110E0000000080A2
:100FA00080800000000E1120202011000000008031
:100FB0008088F800000E112020103F200000808063
:100FC00080800000001F222222221300008080F077
:100FD000888888180020203F2020000000008080A2
:100FE00080808000006B94949493600008F80080E7
:100FF00080800000203F210000203F200080989842
:10100000000000000020203F2020000000000080A1
:101010009898000000C08080807F000008F80000E1
:1010200080808000203F24022D302000000808F836
:10103000000000000020203F2020000080808080F1
:1010400080808000203F20003F20003F8080008083
:1010500080800000203F210000203F200000808091
:1010600080800000001F202020201F008080008042
:101070008000000080FFA12020110E0000000080F1
:1010800080808000000E112020A0FF8080808000E2
:101090008080800020203F2120000100000080800F
:1010A000808080000033242424241900008080E004
:1010B000808000000000001F2020000080800000D1
:1010C00000808000001F202020103F2080808000B2
:1010D0000080808000010E300806010080800080C2
:1010E000008080800F300C030C300F0000808000E7
:1010F000808080000020312E0E3120008080800012
:101100000080808080818E701806010000808080C1
:10111000808080000021302C22213000000000005F
:10112000807C020200000000003F40400000000000
:10113000FF00000000000000FF0000000002027C31
:10114000800000000040403F000000000006010158
:101150000202040400000000000000007C110008EE
:1011600000000020240000001C0B0008A011000853
:1011700024000020040400002C0B000800000000E4
:10118000000000000000000000000000000000005F
:101190000000000001020304000000000000000045
:04000005080000ED02
:00000001FF
